S00B0000534F532E7372656324
S11300000C9446000C94E2010C940E020C943A02F7
S11300100C9463000C94C9030C9463000C94630067
S11300200C9463000C9499030C9463000C9469037E
S11300300C9463000C9463000C9463000C946300B0
S11300400C9463000C9463000C9463000C946300A0
S11300500C946300A604B104BC04CC05C704CC050D
S1130060D204DD04E804F304090514051F05CE05D4
S11300702A05CE05350540054B0556056C05770563
S113008082058D059805A305AE05B90511241FBE8B
S1130090CFE5D8E0DEBFCDBF10E0A0E6B0E0E4E8F5
S11300A0F0E102C005900D92A039B107D9F720E024
S11300B0A0E9B0E001C01D92AD3BB207E1F70E9498
S11300C035010C9440080C94000081E08093660094
S11300D0089582E080936600089580E690E00E948F
S11300E0230180919000909191000196909391004A
S11300F080939000089583E690E00E942301089580
S11301008FB780688FBF0E94CE0690919200892B92
S113011080939200882309F466C083E690E00E94ED
S1130120FA0080939200882309F45DC080E690E091
S11301300E94FA0090919200892B80939200882368
S113014009F451C08BE790E090937400809373009E
S11301508EE690E00E94A90790919200892B8093EB
S11301609200882309F43FC08DE690E090936D00DF
S113017080936C0087E690E00E94A907909192001A
S1130180892B80939200882371F160E085E690E0EA
S11301900E94D70790919200892B80939200882324
S11301A011F187E790E00E94E20790919200892B79
S11301B0809392008823B9F061E089E690E00E9480
S11301C0D70790919200892B80939200882359F04D
S11301D085E790E00E94E20790919200892B80933A
S11301E09200882301F008958091920081110E9469
S11301F003070895CF93DF930097D9F0FC01218181
S11302002830C8F420812430C0F4EC0161E00E945D
S11302103C018A81882319F0813031F010C060E0FC
S1130220CE010E947C010CC061E0CE010E947C01E1
S113023007C080E005C080E003C080E001C080E02A
S1130240DF91CF910895009751F0FC01218128306E
S113025040F42081243038F40E94BD01089580E0E8
S1130260089580E0089580E008950E9480000E942F
S1130270F40080E090E008950097B1F1DC0111965C
S11302802C911197283090F5EC91E43088F5662391
S1130290B1F0613079F5F0E0EE0FFF1FE857FF4F42
S11302A00190F081E02D308181E090E002C0880F60
S11302B0991F2A95E2F7832B808381E00895F0E06B
S11302C0EE0FFF1FE857FF4F0190F081E02D3081C2
S11302D081E090E002C0880F991F2A95E2F780958B
S11302E08323808381E0089580E0089580E0089569
S11302F080E0089580E008950097B9F1DC0111963B
S11303002C911197283098F5EC91E43090F5662300
S113031019F06130B1F02FC0F0E0EE0FFF1FE0588C
S1130320FF4F0190F081E02D308181E090E002C028
S1130330880F991F2A95E2F780958323808381E0B3
S11303400895F0E0EE0FFF1FE058FF4F0190F08199
S1130350E02D308181E090E002C0880F991F2A953A
S1130360E2F7832B808381E0089580E0089580E0A4
S1130370089580E0089580E008950097E9F0DC0195
S113038011962C9111972830C8F4EC91E430C0F404
S1130390F0E0EE0FFF1FE058FF4F0190F081E02DD9
S11303A0308181E090E002C0880F991F2A95E2F71E
S11303B08327808381E0089580E0089580E0089594
S11303C080E008951F920F920FB60F9211242F937D
S11303D03F934F935F936F937F938F939F93AF93C9
S11303E0BF93EF93FF938AB780648ABFE09197002D
S11303F0F0919800309709F00995FF91EF91BF9122
S1130400AF919F918F917F916F915F914F913F91A8
S11304102F910F900FBE0F901F9018951F920F925F
S11304200FB60F9211242F933F934F935F936F93C3
S11304307F938F939F93AF93BF93EF93FF938AB769
S113044080688ABFE0919500F0919600309709F09A
S11304500995FF91EF91BF91AF919F918F917F91FA
S11304606F915F914F913F912F910F900FBE0F901D
S11304701F9018951F920F920FB60F9211242F936D
S11304803F934F935F936F937F938F939F93AF9318
S1130490BF93EF93FF938AB780688ABFE09193007C
S11304A0F0919400309709F00995FF91EF91BF9175
S11304B0AF919F918F917F916F915F914F913F91F8
S11304C02F910F900FBE0F901F9018950097D1F0A9
S11304D06330D0F4613051F018F0623069F016C026
S11304E0909398008093970081E0089590939600EC
S11304F08093950081E008959093940080939300F5
S113050081E0089580E0089580E0089580E00895F2
S1130510633008F069C0853008F068C0613069F163
S113052020F0623009F451C063C0813071F028F0CA
S1130530823099F08330C9F05DC085B78E7F85BF66
S113054085B78D7F85BF81E0089585B7816085BFBC
S113055085B78D7F85BF81E0089585B78E7F85BF80
S113056085B7826085BF81E0089585B7816085BFC6
S113057085B7826085BF81E00895813071F028F0ED
S1130580823099F08330C9F037C085B78B7F85BF3F
S113059085B7877F85BF81E0089585B7846085BF6F
S11305A085B7877F85BF81E0089585B78B7F85BF39
S11305B085B7886085BF81E0089585B7846085BF6D
S11305C085B7886085BF81E00895823019F0833053
S11305D031F014C084B78F7B84BF81E0089584B761
S11305E0806484BF81E0089580E0089580E00895E8
S11305F080E0089580E0089580E0089580E0089503
S11306001F93CF93DF9300D0CDB7DEB7009709F4E3
S113061057C0FC012181233008F054C02130E9F097
S113062018F0223091F14AC02BB72F7B2BBF2AB789
S113063020642ABF60E080810E948802182F83E032
S1130640898382E08A8360E0CE0101960E943C01A6
S1130650812B9BB790649BBF36C02BB72F772BBFE2
S11306602AB720682ABF61E080810E948802182F7F
S113067083E089838A8360E0CE0101960E943C0175
S1130680812B9BB790689BBF1EC02BB72F7D2BBFC0
S11306902AB720622ABF62E080810E948802182F54
S11306A088B3898382E08A8360E0CE0101960E9448
S11306B03C01812B9BB790689BBF05C080E003C0C1
S11306C080E001C080E00F900F90DF91CF911F91E7
S11306D008951F920F920FB60F9211242F933F93F8
S11306E04F935F936F937F938F939F93AF93BF9336
S11306F0EF93FF9380919D0090919E00892B41F090
S113070088B78E7F88BFE0919D00F0919E00099587
S1130710FF91EF91BF91AF919F918F917F916F91D5
S11307205F914F913F912F910F900FBE0F901F90AB
S113073018951F920F920FB60F9211242F933F9387
S11307404F935F936F937F938F939F93AF93BF93D5
S1130750EF93FF9380919B0090919C00892B41F033
S113076088B78B7F88BFE0919B00F0919C0009952E
S1130770FF91EF91BF91AF919F918F917F916F9175
S11307805F914F913F912F910F900FBE0F901F904B
S113079018951F920F920FB60F9211242F933F9327
S11307A04F935F936F937F938F939F93AF93BF9375
S11307B0EF93FF938091990090919A00892B41F0D7
S11307C088B78F7B88BFE0919900F0919A000995D2
S11307D0FF91EF91BF91AF919F918F917F916F9115
S11307E05F914F913F912F910F900FBE0F901F90EB
S11307F01895009709F47CC0FC012081233008F08F
S113080079C031813A3008F077C0213019F120F0F5
S1130810223009F450C072C012BE13BE1CBEFC01CB
S1130820228122BF23B7206823BF23B72F7B23BF96
S113083023B7277F23BF23B72F7E23BF23B72F7D63
S113084023BF8481813009F05BC089B7816089BF8F
S113085080E008951CBC1DBC1FBC1EBC1BBC1ABC84
S1130860FC01228133813DBD2CBD2FB528602FBDF5
S11308702FB524602FBD2FB52E7F2FBD2FB52D7F13
S11308802FBD2EB52F7E2EBD2EB5277F2EBD2FB5A5
S11308902F7B2FBD2FB52F772FBD2FB52F7E2FBDCB
S11308A02FB52F7D2FBD8481813061F589B7846098
S11308B089BF80E0089514BC15BC13BCFC012281DF
S11308C024BD25B5206825BD25B52F7B25BD25B5BF
S11308D0277F25BD25B52F7E25BD25B52F7D25BDBB
S11308E08481813089F489B7806489BF80E0089568
S11308F083E0089583E0089583E0089583E00895F4
S113090080E0089580E0089580E00895009709F458
S11309103BC1DC012C91233008F038C11196EC91D5
S1130920EA3008F035C1213009F468C020F02230E3
S113093009F4C7C02FC18E2F90E08A30910508F0CA
S11309402BC1FC01E65DFF4F0C943A0883B78E7F00
S113095083BF83B78D7F83BF83B78B7F83BF80E0E3
S1130960089583B7816083BF83B78D7F83BF83B7C7
S11309708B7F83BF80E0089583B78E7F83BF83B767
S1130980826083BF83B78B7F83BF80E0089583B782
S1130990816083BF83B7826083BF83B78B7F83BF4C
S11309A080E0089583B78E7F83BF83B78D7F83BF35
S11309B083B7846083BF80E0089583B7816083BF79
S11309C083B78D7F83BF83B7846083BF80E008953E
S11309D083B78E7F83BF83B7826083BF83B784600E
S11309E083BF80E0089583B7816083BF83B782604B
S11309F083BF83B7846083BF80E008958E2F90E027
S1130A008A30910508F0CAC0FC01EC5CFF4F0C94DD
S1130A103A088EB58E7F8EBD8EB58D7F8EBD8EB518
S1130A208B7F8EBD80E008958EB581608EBD8EB5BE
S1130A308D7F8EBD8EB58B7F8EBD80E008958EB583
S1130A408E7F8EBD8EB582608EBD8EB58B7F8EBD42
S1130A5080E008958EB581608EBD8EB582608EBDB6
S1130A608EB58B7F8EBD80E008958EB58E7F8EBD52
S1130A708EB58D7F8EBD8EB584608EBD80E0089569
S1130A808EB581608EBD8EB58D7F8EBD8EB5846032
S1130A908EBD80E008958EB58E7F8EBD8EB582604A
S1130AA08EBD8EB584608EBD80E008958EB5816064
S1130AB08EBD8EB582608EBD8EB584608EBD80E0A5
S1130AC008958E2F90E08830910508F069C0FC01EC
S1130AD0E25CFF4F0C943A0885B58B7F85BD85B5E4
S1130AE08D7F85BD85B58E7F85BD80E0089585B5F4
S1130AF0846085BD85B58D7F85BD85B58E7F85BDBB
S1130B0080E0089585B58B7F85BD85B5826085BD00
S1130B1085B58E7F85BD80E0089585B5846085BDEB
S1130B2085B5826085BD85B58E7F85BD80E00895DD
S1130B3085B58B7F85BD85B58D7F85BD85B5816088
S1130B4085BD80E0089585B5846085BD85B58D7FBC
S1130B5085BD85B5816085BD80E0089585B58B7FB1
S1130B6085BD85B5826085BD85B5816085BD80E024
S1130B70089585B5846085BD85B5826085BD85B5DC
S1130B80816085BD80E0089583E0089583E0089541
S1130B9083E0089583E0089583E0089583E0089551
S1130BA083E00895833038F5813079F018F082308D
S1130BB0B9F023C083B78E7F83BF83B78D7F83BF94
S1130BC083B78B7F83BF80E008958EB58E7F8EBD03
S1130BD08EB58D7F8EBD8EB58B7F8EBD80E00895E2
S1130BE085B58B7F85BD85B58D7F85BD85B58E7FAC
S1130BF085BD80E0089583E0089583E0089500971B
S1130C00F1F0FC0120812330E0F431813A30D8F452
S1130C10213049F018F0223069F017C0FC018281BC
S1130C2082BF80E00895FC01828193819DBD8CBDCB
S1130C3080E00895FC01828184BD80E0089583E012
S1130C40089583E0089583E0089583E0089500976C
S1130C50D1F06330D0F4613051F018F0623069F0B3
S1130C6016C090939E0080939D0080E00895909319
S1130C709C0080939B0080E0089590939A00809359
S1130C80990080E0089583E0089583E0089583E067
S1130C9008958091BC00813099F180E0089551E07D
S1130CA0540F852F29C0E42FF0E0EE0FFF1FEA5404
S1130CB0FF4FA081B1812C91E82FF0E0EE0FFF1FD0
S1130CC0EA54FF4F0190F081E02D9081291748F4F8
S1130CD0E32FF0E011969C91E156FF4F90833F5F24
S1130CE00AC0921740F4632F70E09181FB01E15632
S1130CF0FF4F90833F5F8F5F8330A8F2452F02C080
S1130D0030E040E0433058F281E008951092A600AC
S1130D101092A7001092A8001092A9002EC08091F2
S1130D20A6009091A700A091A800B091A900880FF7
S1130D30991F880F991FFC01E655FF4F408151818F
S1130D40628173814F5F5F4F6F4F7F4F4083518349
S1130D50628373838091A6009091A700A091A8005C
S1130D60B091A9000196A11DB11D8093A600909396
S1130D70A700A093A800B093A9008091A600909129
S1130D80A700A091A800B091A9000397A105B105FF
S1130D9030F289E790E00E94280808958091BC0011
S1130DA081111DC086E896E090937F0080937E00B9
S1130DB089E790E00E94EF07833099F090E009C042
S1130DC0E92FF0E0EE0FFF1FEA54FF4F118210826B
S1130DD09F5F9330A8F391E09093BC00089584E062
S1130DE0089586E008958091BC00813051F480918B
S1130DF079000E942108833029F092E090936600E4
S1130E00089583E0089580916600813009F099C0C7
S1130E108091BC008130B9F789E790E00E940F0807
S1130E20833089F30E9449061092A2001092A30015
S1130E301092A4001092A50076C08091A200909117
S1130E40A300A091A400B091A500FC01E156FF4FBE
S1130E50E081F0E0EE0FFF1FEA54FF4F0190F081B4
S1130E60E02D82819381A0E0B0E04091A2005091F6
S1130E70A3006091A4007091A500FA01E156FF4F10
S1130E80E081F0E0EE0FFF1FEE0FFF1FE655FF4F6E
S1130E90408151816281738184179507A607B70742
S1130EA079F58091A2009091A300A091A400B09143
S1130EB0A500FC01E156FF4FE081F0E0EE0FFF1FBB
S1130EC0EA54FF4F0190F081E02D0580F681E02D7A
S1130ED009958091A2009091A300A091A400B091E3
S1130EE0A500FC01E156FF4FE081F0E0EE0FFF1F8B
S1130EF0EE0FFF1FE655FF4F1082118212821382FC
S1130F008091A2009091A300A091A400B091A500AB
S1130F100196A11DB11D8093A2009093A300A093FC
S1130F20A400B093A5008091A2009091A300A09189
S1130F30A400B091A5000397A105B10508F47DCFE5
S1130F4062CF80916600823009F05DCF0E94F30683
S1130F505ACFFC012181233000F545815681452B70
S1130F60F1F00097F1F03091BC003130E1F430E061
S1130F70F901EE0FFF1FEA54FF4F0190F081E02DBD
S1130F8045815681452B89F4220F331FF901EA5418
S1130F90FF4F9183808381E0089580E0089580E08D
S1130FA0089580E0089580E0089580E00895009712
S1130FB029F0633028F40E946602089580E00895C1
S1130FC080E00895009739F0FC012181233028F452
S1130FD00E940003089580E0089580E008951F931F
S1130FE0CF93DF93009791F0FC012081233080F4AC
S1130FF021812A3078F4EC010E94F903182F6881CA
S11310008D819E810E942706812B05C083E003C049
S113101083E001C083E0DF91CF911F910895009791
S113102051F0FC012081233040F421812A3038F42E
S11310300E948604089583E0089583E0089583E080
S11310400895833018F40E94D205089583E008952A
S1131050009751F0FC012081233040F421812A3093
S113106038F40E94FF05089583E0089583E008950D
S113107083E00895EE0FFF1F0590F491E02D09948D
S1071080F894FFCF0E
S1131084010100010000020102F401000000020158
S11310942C01000000030103000007F80001000014
S11310A43B003800350032003A0037003400310088
S9030000FC
