:100000000C9446000C94C9010C94F5010C94210247
:100010000C9463000C94B0030C9463000C94630084
:100020000C9463000C9480030C9463000C945003B4
:100030000C9463000C9463000C9463000C946300B4
:100040000C9463000C9463000C9463000C946300A4
:100050000C9463008D049804A304B305AE04B305A7
:10006000B904C404CF04DA04F004FB040605B505A2
:100070001105B5051C05270532053D0553055E052F
:10008000690574057F058A059505A00511241FBE25
:10009000CFE5D8E0DEBFCDBF10E0A0E6B0E0E0E500
:1000A000F0E102C005900D92A239B107D9F720E026
:1000B000A2E9B0E001C01D92AF3BB207E1F70E9498
:1000C0001C010C9426080C94000081E080936600CB
:1000D000089582E080936600089580E690E00E9493
:1000E0000A01809192009091930001969093930061
:1000F00080939200089583E690E00E940A0108959B
:100100008FB780688FBF0E94B50690919400892BAD
:100110008093940083E690E00E94E1008093940035
:1001200080E690E00E94E10090919400892B8093FA
:1001300094008BE790E090937500809374008FE6B5
:1001400090E00E948F0790919400892B80939400F7
:100150008DE690E090936E0080936D0088E690E0CD
:100160000E948F0790919400892B8093940060E007
:1001700085E690E00E94BD0790919400892B8093C2
:10018000940088E790E00E94C80790919400892B22
:100190008093940061E089E690E00E94BD07909111
:1001A0009400892B8093940086E790E00E94C80712
:1001B00090919400892B8093940008950E94E90601
:1001C0000895CF93DF930097D9F0FC012181283067
:1001D000C8F420812430C0F4EC0161E00E942301C6
:1001E0008A81882319F0813031F010C060E0CE019F
:1001F0000E9463010CC061E0CE010E94630107C050
:1002000080E005C080E003C080E001C080E0DF91B5
:10021000CF910895009751F0FC012181283040F4DE
:100220002081243038F40E94A401089580E00895CC
:1002300080E0089580E008950E9480000E94DE0022
:1002400080E090E008950097B1F1DC0111962C91C7
:100250001197283090F5EC91E43088F56623B1F0E1
:10026000613079F5F0E0EE0FFF1FE757FF4F019087
:10027000F081E02D308181E090E002C0880F991F6D
:100280002A95E2F7832B808381E00895F0E0EE0F5A
:10029000FF1FE757FF4F0190F081E02D308181E093
:1002A00090E002C0880F991F2A95E2F7809583237A
:1002B000808381E0089580E0089580E0089580E0E3
:1002C000089580E008950097B9F1DC0111962C9112
:1002D0001197283098F5EC91E43090F5662319F0E9
:1002E0006130B1F02FC0F0E0EE0FFF1FEF57FF4F6E
:1002F0000190F081E02D308181E090E002C0880F14
:10030000991F2A95E2F780958323808381E00895E1
:10031000F0E0EE0FFF1FEF57FF4F0190F081E02D4F
:10032000308181E090E002C0880F991F2A95E2F7A2
:10033000832B808381E0089580E0089580E0089514
:1003400080E0089580E008950097E9F0DC011196BF
:100350002C9111972830C8F4EC91E430C0F4F0E00F
:10036000EE0FFF1FEF57FF4F0190F081E02D30811E
:1003700081E090E002C0880F991F2A95E2F7832759
:10038000808381E0089580E0089580E0089580E012
:1003900008951F920F920FB60F9211242F933F933F
:1003A0004F935F936F937F938F939F93AF93BF937D
:1003B000EF93FF938AB780648ABFE0919900F09130
:1003C0009A00309709F00995FF91EF91BF91AF9195
:1003D0009F918F917F916F915F914F913F912F915D
:1003E0000F900FBE0F901F9018951F920F920FB68F
:1003F0000F9211242F933F934F935F936F937F93AB
:100400008F939F93AF93BF93EF93FF938AB78068C7
:100410008ABFE0919700F0919800309709F0099514
:10042000FF91EF91BF91AF919F918F917F916F91CC
:100430005F914F913F912F910F900FBE0F901F90A2
:1004400018951F920F920FB60F9211242F933F937E
:100450004F935F936F937F938F939F93AF93BF93CC
:10046000EF93FF938AB780688ABFE0919500F0917F
:100470009600309709F00995FF91EF91BF91AF91E8
:100480009F918F917F916F915F914F913F912F91AC
:100490000F900FBE0F901F9018950097D1F063300A
:1004A000D0F4613051F018F0623069F016C09093CA
:1004B0009A008093990081E008959093980080932A
:1004C000970081E00895909396008093950081E0D5
:1004D000089580E0089580E0089580E008956330F5
:1004E00008F069C0853008F068C0613069F120F01B
:1004F000623009F451C063C0813071F028F082305D
:1005000099F08330C9F05DC085B78E7F85BF85B710
:100510008D7F85BF81E0089585B7816085BF85B7F0
:100520008D7F85BF81E0089585B78E7F85BF85B7B4
:10053000826085BF81E0089585B7816085BF85B7FA
:10054000826085BF81E00895813071F028F08230AB
:1005500099F08330C9F037C085B78B7F85BF85B7E9
:10056000877F85BF81E0089585B7846085BF85B7A3
:10057000877F85BF81E0089585B78B7F85BF85B76D
:10058000886085BF81E0089585B7846085BF85B7A1
:10059000886085BF81E00895823019F0833031F0A2
:1005A00014C084B78F7B84BF81E0089584B78064D2
:1005B00084BF81E0089580E0089580E0089580E0A0
:1005C000089580E0089580E0089580E008951F93E5
:1005D000CF93DF9300D0CDB7DEB7009709F457C0B3
:1005E000FC012181233008F054C02130E9F018F0DB
:1005F000223091F14AC02BB72F7B2BBF2AB7206442
:100600002ABF60E080810E946F02182F83E08983F7
:1006100082E08A8360E0CE0101960E942301812B53
:100620009BB790649BBF36C02BB72F772BBF2AB7E1
:1006300020682ABF61E080810E946F02182F83E04A
:1006400089838A8360E0CE0101960E942301812B79
:100650009BB790689BBF1EC02BB72F7D2BBF2AB7BF
:1006600020622ABF62E080810E946F02182F88B347
:10067000898382E08A8360E0CE0101960E94230193
:10068000812B9BB790689BBF05C080E003C080E0D2
:1006900001C080E00F900F90DF91CF911F910895DE
:1006A0001F920F920FB60F9211242F933F934F93E7
:1006B0005F936F937F938F939F93AF93BF93EF93CA
:1006C000FF9380919F009091A000892B41F088B703
:1006D0008E7F88BFE0919F00F091A0000995FF9167
:1006E000EF91BF91AF919F918F917F916F915F91AA
:1006F0004F913F912F910F900FBE0F901F90189523
:100700001F920F920FB60F9211242F933F934F9386
:100710005F936F937F938F939F93AF93BF93EF9369
:10072000FF9380919D0090919E00892B41F088B7A6
:100730008B7F88BFE0919D00F0919E000995FF910D
:10074000EF91BF91AF919F918F917F916F915F9149
:100750004F913F912F910F900FBE0F901F901895C2
:100760001F920F920FB60F9211242F933F934F9326
:100770005F936F937F938F939F93AF93BF93EF9309
:10078000FF9380919B0090919C00892B41F088B74A
:100790008F7B88BFE0919B00F0919C000995FF91B1
:1007A000EF91BF91AF919F918F917F916F915F91E9
:1007B0004F913F912F910F900FBE0F901F90189562
:1007C000009709F47CC0FC012081233008F079C037
:1007D00031813A3008F077C0213019F120F0223011
:1007E00009F450C072C012BE13BE1CBEFC012281AF
:1007F00022BF23B7206823BF23B72F7B23BF23B794
:10080000277F23BF23B72F7E23BF23B72F7D23BF8F
:100810008481813009F05BC089B7816089BF80E045
:1008200008951CBC1DBC1FBC1EBC1BBC1ABCFC011B
:10083000228133813DBD2CBD2FB528602FBD2FB542
:1008400024602FBD2FB52E7F2FBD2FB52D7F2FBD3F
:100850002EB52F7E2EBD2EB5277F2EBD2FB52F7B1B
:100860002FBD2FB52F772FBD2FB52F7E2FBD2FB5C5
:100870002F7D2FBD8481813061F589B7846089BF68
:1008800080E0089514BC15BC13BCFC01228124BD7A
:1008900025B5206825BD25B52F7B25BD25B5277F2E
:1008A00025BD25B52F7E25BD25B52F7D25BD848190
:1008B000813089F489B7806489BF80E0089583E03E
:1008C000089583E0089583E0089583E0089580E02B
:1008D000089580E0089580E00895009709F43BC1F1
:1008E000DC012C91233008F038C11196EC91EA30EC
:1008F00008F035C1213009F468C020F0223009F435
:10090000C7C02FC18E2F90E08A30910508F02BC10F
:10091000FC01E65DFF4F0C94200883B78E7F83BFF8
:1009200083B78D7F83BF83B78B7F83BF80E00895BC
:1009300083B7816083BF83B78D7F83BF83B78B7F8E
:1009400083BF80E0089583B78E7F83BF83B78260C3
:1009500083BF83B78B7F83BF80E0089583B78160B7
:1009600083BF83B7826083BF83B78B7F83BF80E001
:10097000089583B78E7F83BF83B78D7F83BF83B78F
:10098000846083BF80E0089583B7816083BF83B7AD
:100990008D7F83BF83B7846083BF80E0089583B772
:1009A0008E7F83BF83B7826083BF83B7846083BF3A
:1009B00080E0089583B7816083BF83B7826083BF7F
:1009C00083B7846083BF80E008958E2F90E08A30E3
:1009D000910508F0CAC0FC01EC5CFF4F0C942008A4
:1009E0008EB58E7F8EBD8EB58D7F8EBD8EB58B7F85
:1009F0008EBD80E008958EB581608EBD8EB58D7FF1
:100A00008EBD8EB58B7F8EBD80E008958EB58E7FB6
:100A10008EBD8EB582608EBD8EB58B7F8EBD80E023
:100A200008958EB581608EBD8EB582608EBD8EB507
:100A30008B7F8EBD80E008958EB58E7F8EBD8EB586
:100A40008D7F8EBD8EB584608EBD80E008958EB59D
:100A500081608EBD8EB58D7F8EBD8EB584608EBD5E
:100A600080E008958EB58E7F8EBD8EB582608EBD7E
:100A70008EB584608EBD80E008958EB581608EBD98
:100A80008EB582608EBD8EB584608EBD80E0089587
:100A90008E2F90E08830910508F069C0FC01E25C7F
:100AA000FF4F0C94200885B58B7F85BD85B58D7F64
:100AB00085BD85B58E7F85BD80E0089585B5846050
:100AC00085BD85B58D7F85BD85B58E7F85BD80E073
:100AD000089585B58B7F85BD85B5826085BD85B55B
:100AE0008E7F85BD80E0089585B5846085BD85B520
:100AF000826085BD85B58E7F85BD80E0089585B512
:100B00008B7F85BD85B58D7F85BD85B5816085BDB4
:100B100080E0089585B5846085BD85B58D7F85BDF0
:100B200085B5816085BD80E0089585B58B7F85BDE5
:100B300085B5826085BD85B5816085BD80E00895FD
:100B400085B5846085BD85B5826085BD85B58160CC
:100B500085BD80E0089583E0089583E0089583E0F3
:100B6000089583E0089583E0089583E0089583E085
:100B70000895833038F5813079F018F08230B9F07B
:100B800023C083B78E7F83BF83B78D7F83BF83B737
:100B90008B7F83BF80E008958EB58E7F8EBD8EB52E
:100BA0008D7F8EBD8EB58B7F8EBD80E0089585B51F
:100BB0008B7F85BD85B58D7F85BD85B58E7F85BDD8
:100BC00080E0089583E0089583E008950097F1F0B0
:100BD000FC0120812330E0F431813A30D8F4213017
:100BE00049F018F0223069F017C0FC01828182BF01
:100BF00080E00895FC01828193819DBD8CBD80E0E1
:100C00000895FC01828184BD80E0089583E0089509
:100C100083E0089583E0089583E008950097D1F07C
:100C20006330D0F4613051F018F0623069F016C0D2
:100C30009093A00080939F0080E0089590939E0081
:100C400080939D0080E0089590939C0080939B008A
:100C500080E0089583E0089583E0089583E0089597
:100C60008091BE00813099F180E0089551E0540FE9
:100C7000852F29C0E42FF0E0EE0FFF1FE854FF4F4F
:100C8000A081B1812C91E82FF0E0EE0FFF1FE85416
:100C9000FF4F0190F081E02D9081291748F4E32F58
:100CA000F0E011969C91EF55FF4F90833F5F0AC093
:100CB000921740F4632F70E09181FB01EF55FF4FD5
:100CC00090833F5F8F5F8330A8F2452F02C030E0F2
:100CD00040E0433058F281E008951092A80010924D
:100CE000A9001092AA001092AB002EC08091A8001B
:100CF0009091A900A091AA00B091AB00880F991F14
:100D0000880F991FFC01E455FF4F4081518162819A
:100D100073814F5F5F4F6F4F7F4F4083518362837B
:100D200073838091A8009091A900A091AA00B0912E
:100D3000AB000196A11DB11D8093A8009093A9005E
:100D4000A093AA00B093AB008091A8009091A90055
:100D5000A091AA00B091AB000397A105B10530F2B4
:100D60008AE790E00E940E0808958091BE008111EC
:100D70001DC08DE696E09093800080937F008AE707
:100D800090E00E94D507833099F090E009C0E92FE8
:100D9000F0E0EE0FFF1FE854FF4F118210829F5FBB
:100DA0009330A8F391E09093BE00089584E00895F5
:100DB00086E008958091BE00813049F480917A00E8
:100DC0000E940708833021F010926700089583E0A5
:100DD000089580916600813009F099C08091BE002D
:100DE0008130B9F78AE790E00E94F507833089F3F4
:100DF0000E9430061092A4001092A5001092A60046
:100E00001092A70076C08091A4009091A500A091B7
:100E1000A600B091A700FC01EF55FF4FE081F0E084
:100E2000EE0FFF1FE854FF4F0190F081E02D82810B
:100E30009381A0E0B0E04091A4005091A5006091A2
:100E4000A6007091A700FA01EF55FF4FE081F0E096
:100E5000EE0FFF1FEE0FFF1FE455FF4F4081518142
:100E60006281738184179507A607B70779F580918A
:100E7000A4009091A500A091A600B091A700FC014C
:100E8000EF55FF4FE081F0E0EE0FFF1FE854FF4FFA
:100E90000190F081E02D0580F681E02D099580918B
:100EA000A4009091A500A091A600B091A700FC011C
:100EB000EF55FF4FE081F0E0EE0FFF1FEE0FFF1F39
:100EC000E455FF4F10821182128213828091A40098
:100ED0009091A500A091A600B091A7000196A11D38
:100EE000B11D8093A4009093A500A093A600B09399
:100EF000A7008091A4009091A500A091A600B091B8
:100F0000A7000397A105B10508F47DCF62CF8091BA
:100F10006600823009F05DCF0E94DA065ACFFC01EC
:100F20002181233000F545815681452BF1F0009752
:100F3000F1F03091BE003130E1F430E0F901EE0F14
:100F4000FF1FE854FF4F0190F081E02D458156814D
:100F5000452B89F4220F331FF901E854FF4F918389
:100F6000808381E0089580E0089580E0089580E026
:100F7000089580E0089580E00895009729F0633097
:100F800028F40E944D02089580E0089580E00895BD
:100F9000009739F0FC012181233028F40E94E702F8
:100FA000089580E0089580E008951F93CF93DF9324
:100FB000009791F0FC012081233080F421812A30B8
:100FC00078F4EC010E94E003182F68818D819E81E6
:100FD0000E940E06812B05C083E003C083E001C0A0
:100FE00083E0DF91CF911F910895009751F0FC01AC
:100FF0002081233040F421812A3038F40E946D048E
:10100000089583E0089583E0089583E00895833090
:1010100018F40E94B905089583E00895009751F0EF
:10102000FC012081233040F421812A3038F40E94D1
:10103000E605089583E0089583E0089583E0089528
:10104000EE0FFF1F0590F491E02D0994F894FFCF67
:1010500001010001000002010102F4010000000290
:10106000012C01000000030103000007F80001004B
:10107000003B003800350032003A003700340031C0
:0210800000006E
:00000001FF
